:020000040000FA
:060000000A128A110C280F
:10000800FE00030EF4000A08F5000A128A111728E8
:100018000A128A110F28F001F101F201F30183019C
:100028000A128A1156280B1D1A281B2837280B116B
:100038000130F2070318F30A0030F307E8307206BC
:10004800033003197306031D2A282B283328F201CD
:10005800F3010130F0070318F10A0030F107D93035
:1000680083120313810075088A00740E8300FE0E44
:100078007E0E0900FF308316031386008701831262
:10008800031386018701D93081008B170B178B1654
:100098000B118316031381120112811101158110AE
:1000A800011408000A128A113E200A128A115B28DC
:1000B8000A128A110C2800308A000408840A820770
:0400C8000034D934F3
:02400E003A3F37
:00000001FF
